:100000000C948F030C94B7030C94B7030C94B703B0
:100010000C94B7030C94B7030C94B7030C94B70378
:100020000C94B7030C94B7030C94390C0C94A80CE3
:100030000C94B7030C94B7030C94B7030C94B70358
:100040000C94B7030C94B7030C94B7030C94B70348
:100050000C94B7030C94B7030C94B7030C94DA0E0A
:100060000C94B7030C94B7030C94B7030C94B70328
:100070000C94B7030C94B7030C94B7030C94B70318
:100080000C94240F0C94B7030C94B7030C94B7038F
:100090000C94B7030C94B7030C94B7030C94B703F8
:1000A0000C94B7030C94B7030C94B7030000000042
:1000B000003E5B4F5B3E3E6B4F6B3E1C3E7C3E1CEE
:1000C000183C7E3C181C577D571C1C5E7F5E1C0034
:1000D000183C1800FFE7C3E7FF0018241800FFE7EB
:1000E000DBE7FF30483A060E2629792926407F05AE
:1000F0000507407F05253F5A3CE73C5A7F3E1C1CC4
:1001000008081C1C3E7F14227F22145F5F005F5F83
:1001100006097F017F006689956A6060606060946F
:10012000A2FFA29408047E040810207E2010080874
:100130002A1C08081C2A08081E101010100C1E0C7F
:100140001E0C30383E3830060E3E0E060000000011
:100150000000005F00000007000700147F147F14F8
:10016000242A7F2A1223130864623649562050003D
:1001700008070300001C2241000041221C002A1C29
:100180007F1C2A08083E0808008070300008080814
:100190000808000060600020100804023E51494534
:1001A0003E00427F400072494949462141494D3352
:1001B0001814127F1027454545393C4A49493141B9
:1001C000211109073649494936464949291E000087
:1001D00014000000403400000008142241141414DC
:1001E0001414004122140802015909063E415D59C8
:1001F0004E7C1211127C7F494949363E41414122D1
:100200007F4141413E7F494949417F090909013EFA
:10021000414151737F0808087F00417F4100204021
:10022000413F017F081422417F404040407F021C33
:10023000027F7F0408107F3E4141413E7F0909094A
:10024000063E4151215E7F09192946264949493216
:1002500003017F01033F4040403F1F2040201F3FDC
:100260004038403F63140814630304780403615961
:10027000494D43007F4141410204081020004141A3
:10028000417F04020102044040404040000307084F
:100290000020545478407F2844443838444444284B
:1002A000384444287F385454541800087E090218F2
:1002B000A4A49C787F0804047800447D400020407A
:1002C000403D007F1028440000417F40007C0478BE
:1002D00004787C080404783844444438FC18242406
:1002E0001818242418FC7C08040408485454542486
:1002F00004043F44243C4040207C1C2040201C3C03
:100300004030403C44281028444C9090907C4464F9
:10031000544C44000836410000007700000041368C
:10032000080002010204023C2623263C1EA1A16112
:10033000123A4040207A3854545559215555794144
:100340002154547841215554784020545579400C1B
:100350001E527212395555555939545454593955FC
:100360005454580000457C410002457D420001453F
:100370007C40F0292429F0F0282528F07C545545AC
:10038000002054547C547C0A097F4932494949323F
:100390003248484832324A4848303A4141217A3A54
:1003A00042402078009DA0A07D39444444393D401E
:1003B00040403D3C24FF2424487E4943662B2FFCCB
:1003C0002F2BFF0929F620C0887E09032054547979
:1003D000410000447D413048484A32384040227A4A
:1003E000007A0A0A727D0D19317D2629292F2826C7
:1003F0002929292630484D402038080808080808CF
:100400000808382F10C8ACBA2F102834FA00007B27
:10041000000008142A142222142A1408950022002D
:1004200095AA005500AAAA55AA55AA000000FF00E7
:10043000101010FF00141414FF001010FF00FF1024
:1004400010F010F0141414FC001414F700FF000056
:10045000FF00FF1414F404FC141417101F10101FD5
:10046000101F1414141F00101010F0000000001FC3
:10047000101010101F10101010F010000000FF10CE
:100480001010101010101010FF10000000FF1400CA
:1004900000FF00FF00001F10170000FC04F41414FC
:1004A0001710171414F404F40000FF00F7141414C8
:1004B00014141414F700F7141414171410101F1048
:1004C0001F141414F4141010F010F000001F101F6B
:1004D0000000001F14000000FC140000F010F010D9
:1004E00010FF10FF141414FF141010101F00000050
:1004F00000F010FFFFFFFFFFF0F0F0F0F0FFFFFF54
:100500000000000000FFFF0F0F0F0F0F38444438AA
:10051000447C2A2A3E147E02020606027E027E02E5
:1005200063554941633844443C04407E201E200604
:10053000027E020299A5E7A5991C2A492A1C4C7241
:1005400001724C304A4D4D303048784830BC625AC8
:10055000463D3E494949007E0101017E2A2A2A2A58
:100560002A44445F444440514A444040444A514034
:100570000000FF0103E080FF000008086B6B0836F5
:1005800012362436060F090F060000181800000066
:100590001010003040FF0101001F01011E00191D55
:1005A0001712003C3C3C3C0000000000080B00021D
:1005B00002020000090400000102020000052400FC
:1005C000100105240101010424020605240600018E
:1005D0000705810310004009040100020A00000021
:1005E00007050202400000070583024000000403E3
:1005F000090412010002EF0201404123368000018C
:100600000102030141726475696E6F204C4C430016
:1006100041726475696E6F204C656F6E6172646FB4
:1006200000F0F89C8E8783878E9CF8F00000FEFF18
:100630000303030303070EFCF80000FEFF0303039C
:100640000303070EFCF80000FFFF0000000000009D
:1006500000FFFF0000FEFF8383838383C7EE7C38A7
:100660000000F8FC0E07030303070EFCF800003F30
:100670007FE0C08080C0E07F3FFFFF0101010101FA
:100680000101FFFF0000FFFF0C0C0C0C1C3E77E388
:10069000C100007FFFC0C0C0C0C0E0703F1F0000AD
:1006A0001F3F70E0C0C0C0E0703F1F00007FFFC16F
:1006B000C1C1C1C1E3773E1C00001F3F70E0C0C054
:1006C000C0E0703F1F000000000001FFFF010000BC
:1006D00000D5F08D14A1C881CFD9F1AF2000F4016D
:1006E00064000080DC0064000080BC0264000080C4
:1006F000F4016400DC006400F4016400008058022E
:1007000064000080DC00E8030000FA00B801F40196
:100710007003D0070080020200030003FD0F1124C4
:100720001FBECFEFDAE0DEBFCDBF11E0A0E0B1E049
:10073000EAEBF9E302C005900D92A23DB107D9F7AB
:1007400026E0A2EDB1E001C01D92A33CB207E1F7A3
:1007500013E0CFE8D3E004C02197FE010E94D01C33
:10076000CE38D107C9F70E94C3100C94DB1C0C943F
:1007700000008091ED010895E2E0F2E0A0E0B8E031
:1007800000800EBC8111012C1197A0FDFDCF0192BC
:10079000B9F70DB4089590918A06982329F49091A1
:1007A0008906982381E009F480E0089580E0E2E082
:1007B000F2E081118FEF00248193819381938193E3
:1007C0000394D1F7E0E8F6E0128A118A108A1786BE
:1007D0000895FC0180910102882311F13FB7F8943C
:1007E00082E08093E9002091F200822F90E01816B9
:1007F000190614F481E090E0882339F0289844E643
:10080000409300024091F1004083222339F020916F
:10081000F200211103C02BE62093E8003FBF0895AA
:100820008FEF9FEF08952FB7F89483E08093E9004E
:100830009091E800892F807295FF04C09091F2009A
:1008400080E4891B2FBF08958091F80181110DC0AC
:1008500082E08093F40184E08093F5011092F70127
:100860001092F60181E08093F80184EF91E0089501
:100870004091E7015091E8012091E5013091E601B6
:1008800042175307B4F49091E8009570E1F390910A
:10089000E80092FD19C08093F1008091E7019091EA
:1008A000E80101968F739927892B19F48EEF8093B5
:1008B000E8008091E7019091E80101969093E801AA
:1008C0008093E70181E0089580E00895DF92EF9240
:1008D000FF920F931F93CF93DF93D82E8A01EB01E2
:1008E0007B01E40EF51ECE15DF0559F0D7FE12C0D0
:1008F000FE0184910E94380421968111F4CF0FEFFC
:100900001FEFC801DF91CF911F910F91FF90EF90E2
:10091000DF9008958881EECF0F931F93CF93DF93DD
:100920001F92CDB7DEB782E0898342E450E06CEAE3
:1009300075E080E80E9466040E942404DC0112969F
:100940000D911C910115110589F0D801ED91FC91D3
:100950000280F381E02DBE016F5F7F4FC8010995D2
:1009600097FD04C0F80100851185ECCF89810F90B7
:10097000DF91CF911F910F910895615030F0209138
:10098000F100FC0120830196F8CF289884E680933B
:1009900000020895AF92BF92CF92DF92EF92FF9242
:1009A0000F931F93CF93DF936C017B018B01040F97
:1009B000151FEB015E01AE18BF08C017D10759F033
:1009C0006991D601ED91FC910190F081E02DC60175
:1009D0000995892B79F7C501DF91CF911F910F916F
:1009E000FF90EF90DF90CF90BF90AF900895CF939E
:1009F000DF931F92CDB7DEB76983DC01ED91FC91E7
:100A00000280F381E02D41E050E0BE016F5F7F4F37
:100A100009950F90DF91CF91089583E08093E900CD
:100A20008091F200882319F08AE38093E80008950A
:100A30000E94130490E00895CF93DF931F92CDB7E7
:100A4000DEB7FC018485958597FD08C02FEF3FEF49
:100A5000358724870F90DF91CF910895CE010196BD
:100A60000E94E903019719F4898190E0F3CF8FEF99
:100A70009FEFF0CF0F931F93CF93DF931F92CDB7CC
:100A8000DEB78C01FC018485958597FF0BC0CE01F4
:100A900001960E94E903019771F4898190E0F801C1
:100AA00095878487F801848595850F90DF91CF9194
:100AB0001F910F9108958FEF9FEFF1CFFC01848577
:100AC000958597FD0BC09FB7F89482E08093E9006D
:100AD0008091F2009FBF90E0019608959FB7F8942F
:100AE00082E08093E9008091F2009FBF90E008953A
:100AF0003FB7F8948091E1019091E201A091E30168
:100B0000B091E40126B5A89B05C02F3F19F00196CE
:100B1000A11DB11D3FBFBA2FA92F982F8827BC0157
:100B2000CD01620F711D811D911D42E0660F771F7F
:100B3000881F991F4A95D1F708958F929F92AF927F
:100B4000BF92CF92DF92EF92FF926B017C010E94E5
:100B500078054B015C01C114D104E104F104B9F042
:100B60000E947805681979098A099B09683E7340D3
:100B70008105910580F321E0C21AD108E108F1084E
:100B800088EE880E83E0981EA11CB11CE4CFFF9074
:100B9000EF90DF90CF90BF90AF909F908F9008958F
:100BA0008F929F92AF92BF92CF92DF92EF92FF927D
:100BB0000F931F93CF93DF936C017B018A01809188
:100BC0000B01882309F45CC080910102882309F499
:100BD00057C08091EB0180FF05C08091E0008260EA
:100BE0008093E000E801B12C8AEFA82E93E0892ED3
:100BF0002AE3922E209711F4BB20D9F10E9413040E
:100C000081110AC0AA94AA20D9F161E070E080E0C5
:100C100090E00E949D05EECF8C171D0611F00CF0A0
:100C20008C2F9FB7F8948092E9002091E80025FD71
:100C300002C09FBFDFCF282F30E0C21BD30BF701CC
:100C4000815020F041914093F100FACFE20EF31E63
:100C5000BB2021F09092E800B12CEBCF8091E8000E
:100C600085FDE7CF9092E800BB24B394209709F369
:100C7000F3CF5D9884E68093EA01101611063CF0EC
:100C800081E090E0F6019383828310E000E0C801E8
:100C9000DF91CF911F910F91FF90EF90DF90CF9058
:100CA000BF90AF909F908F9008952091D901E091CF
:100CB000D701F091D801CF0102969093D80180938B
:100CC000D701222319F08591949108958081918113
:100CD0000895E1E7F0E080818D7F8083109291009C
:100CE000469847981092D6010895CF92DF92EF92DE
:100CF000FF92CF93DF930E945506811520E892075B
:100D000041F4DF91CF91FF90EF90DF90CF900C9462
:100D1000690621E02093D601813020E8920751F442
:100D20008091D4019091D5019093D8018093D701FF
:100D30000E94550697FD05C02091D301222309F496
:100D40005BC02091D201211157C021E02093DA012C
:100D5000EC01DF77209709F052C081E08093DB013E
:100D600046983FE9C32E3FE0D32EE12CF12CCAEF89
:100D7000D0E0E0916006F09161060995811103C011
:100D800081E08093DB018091DA01882329F0809152
:100D9000DB01882309F446C047980E945506009756
:100DA00009F444C09C01DE010E946A1ADC01CB01F7
:100DB00029E0B595A795979587952A95D1F7109233
:100DC00090002AE020939100D0929900C092980060
:100DD0008093DC019093DD01A093DE01B093DF01ED
:100DE00080917100826080937100DF91CF91FF90BC
:100DF000EF90DF90CF9008951092DA01A9CF9E0175
:100E000050E040E060E472E48FE090E00E94161A47
:100E100069017A0181E0C81AD108E108F10810924D
:100E2000DB01A7CF4699B8CF479AB7CF8FEF9FEF97
:100E3000DC01C5CF9C01E1E7F0E090819D7F9083CC
:100E400081E08093D9013093D8012093D70130936A
:100E5000D5012093D4010C9475064F925F926F9246
:100E60007F928F929F92AF92BF92CF92DF92EF923A
:100E7000FF920F931F93CF93DF934C015901FC2DE9
:100E8000C02FD0E0CE01880D991D181619060CF060
:100E90006CC020E8821691040CF067C09B012E0DF7
:100EA000311D121613060CF060C0603471050CF091
:100EB0005CC04115510509F458C0E62FE770FE2EBD
:100EC000DB0177FD179633E0B595A7953A95E1F7E5
:100ED0003A2F77FF04C0FF2011F03FEF3A0F66274B
:100EE00077276819790997FC02C070E060E08038C4
:100EF00091050CF44BC090E89819961BA32F032E74
:100F0000000CBB0B1A2F10953F3F0CF010E021E0B6
:100F10008E2D877009F420E0E694E694E694E20EC4
:100F2000AE0DB11D19971CF028E0E22EE31AE11A6C
:100F3000310F20E83203D0011124A80DB91DA60FEE
:100F4000B71F019F600D711D1124460F571F0F2DF4
:100F50000F2C000C110BF33009F41CC1C8F4F13054
:100F600009F4D0C0F23009F47CC0DF91CF911F9119
:100F70000F91FF90EF90DF90CF90BF90AF909F9038
:100F80008F907F906F905F904F900895902FB5CF86
:100F9000FA3FB1F1232F2E0DFB3F39F7321729F31A
:100FA000BD016E5F7D4FD12CC12CC91608F0A4C0C5
:100FB000FA01EC0DFD1DE491F0E04F01002E02C09E
:100FC000880C991C0A94E2F737FD06C0FB0180816A
:100FD000E82CE0948E218083FF2061F0373054F4B8
:100FE0005B01F0E8AF0EB11CE92CE094F5018081C3
:100FF0008E218083FFEFCF1ADF0A6F5F7F4FD5CF3F
:10100000232F2E0D321709F4B0CFBD016E5F7D4F37
:10101000D12CC12CC91608F069C0FA01EC0DFD1DD8
:10102000E491F0E04F01002E02C0880C991C0A9454
:10103000E2F737FD04C0FB01808188298083FF200F
:1010400051F0373044F45B01F0E8AF0EB11CF5010C
:10105000808189298083FFEFCF1ADF0A6F5F7F4F7E
:10106000D9CF6FEF70E00F2C02C0660F771F0A9484
:10107000E2F760957095772E232F2E0D321709F425
:1010800074CFFD01EE5FFD4F6F01B12CA12CA916AD
:1010900038F5FA01EA0DFB1DE491F0E02F01002E76
:1010A00002C0440C551C0A94E2F737FD05C0F60156
:1010B0008081862384298083FF2059F037304CF4C7
:1010C0004601F0E88F0E911CF4018081872185296B
:1010D0008083FFEFAF1ABF0A8FEFC81AD80AD7CFA5
:1010E0003F5F4C0F5D1FA058BF4FC8CF3F5F4C0FF5
:1010F0005D1FA058BF4F86CF3F5F4C0F5D1FA058AC
:10110000BF4F4CCF6A0D7B1D232F2E0D321709F4D4
:101110002CCFFD01EE5FFD4F6F01B12CA12CA91664
:1011200088F5FB01EA0DFB1D8490912C002E02C076
:10113000880C991C0A94E2F780949094FA01EA0DC5
:10114000FB1D6490712C002E02C0660C771C0A9463
:10115000E2F737FD05C0F60180818821862980836A
:10116000FF2049F037303CF4F601E058FF4F808112
:10117000892187298083FFEFAF1ABF0A8FEFC81A32
:10118000D80ACDCF3F5F4C0F5D1F6C0F7D1FA0585D
:10119000BF4FBCCFC92ED12CFA01E60FF71FAE5FAF
:1011A000BD4F00E810E00C191D09CC19DD09BE0186
:1011B000660F771F41E050E06A010F2C01C0CC0C94
:1011C0000A94EAF7592F2E2D792ECF93DF93ED0154
:1011D000EF96EF9622968590A590FF2059F08C9C73
:1011E0004001AC9C500137302CF4E880B094EB20E7
:1011F000E928E99233233AF0EC90A094EA20E82819
:10120000ED920C94040911965A9529F72A9551F0FC
:10121000572D33951124E60FF11DA00FB11DC00FFE
:10122000D11DD9CFDF91CF9111249FCE2D9A089552
:10123000BC0190E080E00C949D058FB18095807F8B
:10124000669B88601C9B8460089520E191E061FDAD
:1012500094E060FD990F62FD9295687F269FD00112
:101260001124A80FAE5FBD4F8C9140FF03C0892BA6
:101270008C93089590958923FBCFAF92BF92CF9224
:10128000DF92EF92FF920F931F93CF93DF93EC01C6
:101290007B015C0124E0A20EB11C6B0189E0C80E49
:1012A000D11CCA15DB05E1F08701F7FE02C010E092
:1012B00000E0C60121E4C216D10414F080E490E0FD
:1012C000081719075CF4C038D10528F441E0B801CB
:1012D000CE010E9425090F5F1F4FEBCF2196E1CF72
:1012E000DF91CF911F910F91FF90EF90DF90CF9002
:1012F000BF90AF9008952F923F924F925F926F925E
:101300007F928F929F92AF92BF92CF92DF92EF9295
:10131000FF920F931F93CF93DF93CDB7DEB728973C
:101320000FB6F894DEBF0FBECDBF9E838D836A30AB
:1013300061F5DC0155968C91B8E08B9F90011124EA
:10134000ED81FE8181899289820F931F928B818B1F
:10135000108A178681E090E028960FB6F894DEBFD9
:101360000FBECDBFDF91CF911F910F91FF90EF90F6
:10137000DF90CF90BF90AF909F908F907F906F90B5
:101380005F904F903F902F9008956D3019F32D810D
:101390003E8138872F83D9011F960D911C9150975C
:1013A000003811050CF07CC05196AD90BC90B0E4B3
:1013B000AB16B1040CF074C0F901258825E0C80112
:1013C000229E800D911D1124181619060CF068C07C
:1013D000622C712CC30133E0880F991F3A95E1F715
:1013E0008A0D9B1D181619060CF05AC0F489FB8350
:1013F000AF81B8855396BC91BC83629FB001112424
:10140000FB01E455FF4F2F011982F2018491F9810C
:10141000F53009F480E0450128E02A83A82FB0E0E8
:10142000BE83AD833C8080FF3B80311004C0BB8114
:10143000EC81BE17F9F078018E2D801B8215D0F457
:10144000D12CC12CC21490F4F0E8EF16F10450F442
:10145000B601680D791D6034710520F4432DC70174
:101460000E9425092FEFC21AD20AECCF3FEFE31AF0
:10147000F30AE2CF8D819E81959587959A8191504F
:101480009A83860C971C9111C9CFA981AF5FA9835C
:10149000BFEF4B1A5B0A060D171DA63009F0B5CF3A
:1014A000EF81F8852589422F50E087859089F6E005
:1014B0002F9F800D911D1124AF81B88550969C936C
:1014C0008E931F9756962C915697222309F442CF5C
:1014D0006AEF64039001659F300D112420583F4F3F
:1014E000281739070CF036CFED91FC911197019038
:1014F000F081E02D6AE0CD0109952CCF0895E2E658
:10150000F6E0138E148EE7E9F6E08FE390E0928721
:101510008187918380838FE190E094878387938391
:1015200082830895089590E080E008950F931F93BB
:10153000CF93DF93809164008E7F809364008091CD
:101540007A00806480937A0080917A0086FDFCCFD7
:10155000C0917800D09179000E947805AB01BC0160
:10156000CE01B0E0A0E0DC01992788278C019D0125
:10157000040F151F261F371FC901B80120916400F1
:10158000216020936400611571058105910531F09A
:10159000DF91CF911F910F910C94F719DF91CF91AB
:1015A0001F910F9108950C94001A0E94D61CFB0104
:1015B00001900020E9F73197AF01461B570BDC0182
:1015C000ED91FC910280F381E02D09948F929F921E
:1015D000AF92BF92EF92FF920F931F93CF93DF933F
:1015E000CDB7DEB7A1970FB6F894DEBF0FBECDBF63
:1015F0007C01FA01CB0119A2223008F42AE08E0105
:101600000F5D1F4F822E912CB12CA12CBF01A50183
:1016100094010E94481AF901CA016A300CF5605D14
:10162000D8016E938D01232B242B252B79F790E085
:1016300080E0109721F0BD01C7010E94D70AA19652
:101640000FB6F894DEBF0FBECDBFDF91CF911F91D3
:101650000F91FF90EF90BF90AF909F908F90089563
:10166000695CDECF4F925F926F927F928F929F92D2
:10167000AF92BF92CF92DF92EF92FF920F931F93A0
:10168000CF936B017C01742EAC019B010E94B71CAF
:101690006EE371E0811126C046015701E894B7F866
:1016A0002FEF3FEF4FE75FE7C501B4010E94B71C82
:1016B00081110CC02FEF3FEF4FE75FE7C501B40189
:1016C0000E94E61A62E471E0181664F02FEF3FEF13
:1016D0004FE75FE4C701B6010E94451C1816ACF441
:1016E00066E471E082E096E0CF911F910F91FF9048
:1016F000EF90DF90CF90BF90AF909F908F907F90B2
:101700006F905F904F900C94D70A2FEF3FEF4FE709
:101710005FECC701B6010E94E61A87FDE1CF20E029
:1017200030E0A901C701B6010E94E61A10E000E00E
:1017300087FF0AC06DE282E096E00E94F7048C0108
:10174000F7FAF094F7F8F094C0E060E070E080E021
:101750009FE37C1641F020E030E040E251E40E943B
:10176000EB1ACF5FF6CFA70196010E947A1A2B01E0
:101770003C010E94641B4B015C012AE0BC01A401F6
:1017800082E096E00E94E60A7C01E00EF11ECC2386
:10179000D1F1C501B4010E94931B9B01AC01C301AF
:1017A000B2010E94791A4B015C016EE282E096E080
:1017B0000E94F704E80EF91EC15028F120E030E045
:1017C00040E251E4C501B4010E944A1C2B013C01D6
:1017D0000E94641B4B01B12CA12C2AE0B501A4018D
:1017E00082E096E00E94E60AE80EF91EC501B40107
:1017F0000E94931B9B01AC01C301B2010E94791AA4
:101800004B015C01D9CFC701CF911F910F91FF9080
:10181000EF90DF90CF90BF90AF909F908F907F9090
:101820006F905F904F9008950C94D70ACF93DF93F9
:10183000C2E6D6E082E390E0988B8F8782E090E06A
:101840009A8B898B4B8D50E070E060E02AE0CE01EE
:101850000E94E60A6AE471E0CE010E94140C4C8DED
:1018600050E070E060E02AE0CE01DF91CF910C946F
:10187000E60A1F920F920FB60F9211248F939F9337
:101880008091E1009091E100937F9093E10083FFCC
:101890000FC01092E90091E09093EB001092EC00E1
:1018A00092E39093ED001092010298E09093F00083
:1018B00082FF22C093E09093E9009091F200992377
:1018C00019F09AE39093E8009091EA01992341F08E
:1018D0009091EA0191509093EA01911101C05D9AB3
:1018E00090910002992341F09091000291509093C1
:1018F0000002911101C0289A84FF18C08091E20073
:101900008E7E81608093E2008091E1008F7E8093E3
:10191000E1008091EB018E7E80618093EB019F91CD
:101920008F910F900FBE0F901F90189580FFF7CFEB
:101930008091E2008E7E80618093E2008091E100E0
:101940008E7E8093E1008091EB018E7E8160E5CFF9
:101950001F920F920FB60F921124CF92DF92EF9247
:10196000FF920F931F932F933F934F935F936F9328
:101970007F938F939F93AF93BF93EF93FF93CF93F7
:10198000DF93CDB7DEB76C97DEBFCDBF1092E90015
:101990008091E80083FF25C068E0CE0145960E9453
:1019A000BD0482EF8093E8008D8987FF39C0909154
:1019B000E80090FFFCCF982F907609F034C19E8903
:1019C0004F89588D2F89F88C911131C0803861F57D
:1019D0008091EC018093F1001092F1008EEF8093E2
:1019E000E8006C960FB6F894DEBF0FBECDBFDF9156
:1019F000CF91FF91EF91BF91AF919F918F917F9187
:101A00006F915F914F913F912F911F910F91FF9097
:101A1000EF90DF90CF900F900FBE0F901F90189512
:101A20009EEF9093E800C7CF1092F100D5CF913090
:101A300059F48111D3CF4130510581F68091EC01E9
:101A40008D7F8093EC01CACF933049F48111C6CFCA
:101A50004130510519F68091EC018260F2CF95304A
:101A600041F48091E80080FFFCCF20682093E300E0
:101A7000B5CF963009F0A9C00B8D1C8D22E01092D5
:101A8000E9001092E8011092E701F2122EC01092C4
:101A9000E6011092E5010E948C041F8299E099836F
:101AA000FA8291E09E8390EA98879AEF9987209135
:101AB000E7013091E801275F3F4F3C832B838D8303
:101AC0001092E9001092E8011092E7011093E601EC
:101AD0000093E50149E050E0BE016F5F7F4F80E079
:101AE0000E9466040E948C0479CF1093E601009353
:101AF000E5010E942404DC0112960D911C91011550
:101B0000110509F451C1D801ED91FC910480F581D2
:101B1000E02DBE016B5E7F4FC8010995009709F06B
:101B20003EC1F80100851185EACFF3E0FF120EC037
:101B30008F89882309F440C0823061F440E860E175
:101B400080E196E00E94850F811148CF81E2809369
:101B5000EB0047CF813029F440E86BE084E096E069
:101B6000F1CF833099F70E942404DC011296ED90A6
:101B7000FC908E010F5F1F4F6801E114F10479F0B2
:101B8000D701ED91FC910680F781E02DB801C701E6
:101B90000995080F111DF701E084F184EECFD801FB
:101BA0001C92F60101900020E9F73197BF016C19F2
:101BB0007D0940E0C601C6CF6EEE75E0FB014491A1
:101BC00050E080E80E94660409CF973009F4BECF48
:101BD000983021F481E08093F10000CF993009F032
:101BE000FDCE837009F0B2CFE2E1F1E081E031E0B7
:101BF00096E32191222371F08093E9003093EB006A
:101C0000DF0111972C912093EC009093ED008F5FF2
:101C1000873079F78EE78093EA001092EA008F8987
:101C200080930102DBCE8B8D9C8D1092E900109287
:101C3000E8011092E7019093E6018093E501898D18
:101C4000811192C08E899D89913A49F4813209F0BF
:101C50007DCF47E050E064E071E080E0B3CF9132A7
:101C600009F074CF833269F48F89988DB0E0A0E0D9
:101C70008093000190930101A0930201B0930301AE
:101C8000ADCE803269F48091E80082FFFCCF67E03E
:101C900084E091E00E94BD048BEF8093E8009ECE2B
:101CA000823209F09BCE8F8980930B01EEEFFFE724
:101CB000859194918B3F9C4D51F1E0E0F8E080914B
:101CC000040190910501A0910601B0910701803BAC
:101CD0009440A105B105F1F480910B0180FD1AC07B
:101CE000EE3F8AE0F80789F587E797E791838083DD
:101CF000809160008093E90188E19BE00FB6F89441
:101D0000A895809360000FBE9093600067CEEEEFC1
:101D1000FAE0D5CF808191818737974709F05ECE71
:101D2000A895809160008861809360008091E901AE
:101D300080936000EE3F2AE0F20789F08091FE0A6E
:101D40009091FF0A9183808349CE8081918187376A
:101D5000980751F29093FF0A8093FE0AC5CF109224
:101D6000FF0A1092FE0A3ACE0E942404DC01129669
:101D70000D911C910115110509F4E8CED801ED91E2
:101D8000FC910190F081E02DBE016B5E7F4FC80198
:101D90000995811123CEF80100851185EBCF181626
:101DA00019060CF41BCED2CEF1E0FF12BECE62EFCC
:101DB00075E004CF1F920F920FB60F9211242F934C
:101DC0003F938F939F93AF93BF938091EE01909138
:101DD000EF01A091F001B091F1013091E00123E019
:101DE000230F2D3758F50196A11DB11D2093E00159
:101DF0008093EE019093EF01A093F001B093F10175
:101E00008091E1019091E201A091E301B091E401A0
:101E10000196A11DB11D8093E1019093E201A09371
:101E2000E301B093E401BF91AF919F918F913F91F6
:101E30002F910F900FBE0F901F90189526E8230F3B
:101E40000296A11DB11DD2CF1F920F920FB60F9215
:101E500011242F933F934F935F936F937F938F93AF
:101E60009F93AF93BF93EF93FF938091DC01909189
:101E7000DD01A091DE01B091DF01892B8A2B8B2B34
:101E800009F440C08091DB0181110BC088B190E45E
:101E9000892788B98091DA01882319F088B18058A0
:101EA00088B98091DC019091DD01A091DE01B091B3
:101EB000DF01181619061A061B069CF48091DC0136
:101EC0009091DD01A091DE01B091DF010197A109A0
:101ED000B1098093DC019093DD01A093DE01B09302
:101EE000DF01FF91EF91BF91AF919F918F917F9112
:101EF0006F915F914F913F912F910F900FBE0F9077
:101F00001F9018950E947506ECCFEF92FF920F93E9
:101F10001F93CF93DF93F82E192FE62E042F81E025
:101F2000860F880F0E94380483E00E943804CF2D6A
:101F3000D12FEC0EFD2EF11CCE15DF05B9F007FFF9
:101F400013C0FE0184910E943804182F80E00E9483
:101F50003804812321968111EFCFDF91CF911F911A
:101F60000F91FF90EF9008958881EDCF81E0F5CF3C
:101F70000F931F93CF93DF938C0181E090E00E9439
:101F8000D30A80FF32C08AE090E00E94D30A9FEF1C
:101F9000980F9E3F50F522E330E0D80150963C93D5
:101FA0002E931F9728E330E052963C932E9351973F
:101FB000CBE0D0E0D801ED91FC910190F081E02DD3
:101FC000682FC8010995CE010E94D30A2196C1311C
:101FD000D10581F780E00E94BC0388EE93E0DF9199
:101FE000CF911F910F910C941809DF91CF911F9100
:101FF0000F91089504970C94B80FCF92EF920F931E
:102000001F93CF93DF93E2E0F6E01382128288EE13
:1020100093E0A0E0B0E084839583A683B7838CE14E
:1020200091E0918380838FEF9FEF95878487E5EB25
:10203000F6E0148230E3358382E0848710E115876F
:102040001182108244E050E05383428368EF7FEFB7
:10205000778366835187408728E0228799E09387BA
:10206000E7EAF6E014823583848715874CE750E071
:102070005183408344E350E05383428360E87FEF21
:10208000778366835187408722879387C7E9D6E0A5
:1020900093E098878D878E8794E09F872FE330E0C9
:1020A0003A872987398328832FE130E03C872B87C3
:1020B0003B832A838C838D83E6E1F7E00491E7E19B
:1020C000F7E0E49082E0C82E30E020E048E157E0FD
:1020D0006FE170E08FE390E00E942D07E0E8F6E00A
:1020E0001382128211861286138710861782158634
:1020F0004EE251E0518340832CE331E03583248369
:10210000108A1786128A118A81E0838B148A858B44
:10211000168A69EB73E0709361066093600660E075
:1021200070E870935F0660935E0646983E9A479803
:102130003F9A64859685E2E6F6E0518340833583D5
:10214000248326E4218F128E2AE0258F13821282A7
:1021500010861782118612861387648715869687E4
:10216000108A1786128A118A838B148A858B168AA5
:10217000D08FC78B138E148EDF91CF911F910F914B
:10218000EF90CF900895CF93DF93CDB7DEB76697EA
:102190000FB6F894DEBF0FBECDBF789484B58260D1
:1021A00084BD84B5816084BD85B5826085BD85B5FB
:1021B000816085BD80916E00816080936E00109279
:1021C00081008091810082608093810080918100F4
:1021D0008160809381008091800081608093800085
:1021E0008091910082608093910080919100816044
:1021F0008093910080919000816080939000809105
:10220000C10084608093C1008091C100826080938E
:10221000C1008091C10081608093C1008091C300A2
:1022200081608093C3008091C00082608093C00071
:102230008091C20081608093C20080917A008460A6
:1022400080937A0080917A00826080937A008091F6
:102250007A00816080937A0080917A008068809310
:102260007A00109201021092EC011092EB01809121
:10227000D70081608093D70080EA8093D80089B529
:10228000806189BD89B5826089BD09B400FEFDCF3A
:1022900061E070E080E090E00E949D058091D800B0
:1022A0008F7C80618093D8008091E000807F809354
:1022B000E0008091E1008E7E8093E1008DE08093CC
:1022C000E200559A209A81EC80937C0085B1806F62
:1022D00085B984B1877E84B984B1876E84B95E9AEA
:1022E0005F988AB1806D8AB9769A6E9881B3806F53
:1022F00081BB899880B38D7080BB80E58CBD81E007
:102300008DBD85E090E00E9418095F9A85E090E01D
:102310000E9418095E985C98E1EDF6E084918EBD0C
:1023200000000DB407FEFDCF319626E0EE3DF2072A
:10233000A9F75C9A81E880936400809165008160D0
:102340008093650080E00E94BC030E941D0987FF06
:1023500015C05C9885EA8EBD00000DB407FEFDCF68
:102360005C9A2E982F982D988091640080628093BB
:10237000640081E083BF889513BEFCCF0E941D09D5
:1023800082FF48C02D980E941D0984788438E1F4AA
:102390000E94160988EC90E00E9418092F9882E0AC
:1023A00090E00E94001A8F3F29F06FEF82E090E0EA
:1023B0000E94081A84EF91E00E9418092F9A0E9447
:1023C0001D0984788438D9F30E941D0984718431F1
:1023D000E1F40E94160988EC90E00E9418092E98FA
:1023E00082E090E00E94001A882329F060E082E0F9
:1023F00090E00E94081A84EF91E00E9418092E9A3A
:102400000E941D0984718431D9F388EC90E00E9408
:102410001809B4CF0E94160982E090E00E94D30A06
:10242000882309F44BC03E9A3F9A81E08093ED01E6
:1024300081E090E00E94D30A382F3470532E81FF40
:102440000FC031112E9801EF1FEFA8E0AA2EB12C7A
:102450000E941D0986FF37C02E9A2F9A0E941609E6
:1024600082E390E00E9418090E941D098111F8CFB3
:1024700081E280938B065DE2252E312C8FB7F89494
:102480004091EE015091EF016091F0017091F101E6
:102490008FBF80918C06242F281B822F10918D06D0
:1024A000112309F4A8C020938E0610928D0680E0B7
:1024B00090E0892B19F30E940000E0CF1092ED010B
:1024C0003E983F98B5CF552029F00430110511F4FE
:1024D0002E9A2F9881E00E94BC03980117FF04C038
:1024E00022273327201B310B27703327C80117FD04
:1024F0000796F3E095958795FA95E1F717FF05C0E4
:102500000197A501421B530B9A01BC017695762FCA
:102510006627779567956E5F7D4FB0E0A0E0150167
:10252000221A330A8E3F5FEF950709F43FC07B0103
:1025300050E040E0FD01EF5DF94F4F013B01F0E855
:102540006F0E711C8F3F980779F0F401E40FF51FAF
:10255000E491F0E06F01022E01C0CC0C0A94EAF77E
:10256000F701D488CD28C48A21153105B9F0F401CA
:10257000E40FF51F44906301C40ED51EE42DF0E076
:10258000022C02C0F595E7950A94E2F7FC8BEB8BE1
:10259000F6014488FB894F2AF601448A4F5F5F4F5A
:1025A000FFEFEF1AFF0A4835510561F60196A85A68
:1025B000BF4F60587F4FA03BB10509F0B3CF80E01B
:1025C0000E94BC038FE090E00E9418090F5F1F4F2C
:1025D0000931110509F03CCF552011F02F9A2D98A3
:1025E00080E991E00E9418090E94160980E896E0AF
:1025F0000E94B80F35CF90918B06291748F48F5F52
:10260000891708F054CF81E083BF889513BE4FCF60
:1026100081E080938D0640938C068091870690918F
:102620008806019690938806809387068091890694
:1026300080938A060E941D098093890680E10E948A
:10264000CB038823A1F080917C068B7F81F48EEFF1
:1026500096E00E941A0780917F068E3140F4909197
:102660007C06992309F494C2843108F48EC280E870
:102670000E94CB03882379F080917C068B7F59F4EC
:102680008EEF96E00E941A0780917F068B3018F03B
:102690008A5080937F0688E00E94CB03882319F13B
:1026A00080917C0681111FC080917F06843109F4DE
:1026B00073C28E3109F472C28A30A9F483E0809328
:1026C0007C060E94960A0E94A81923E030E040E0B0
:1026D00050E00E94161A6C5F7F4F8F4F9F4F709390
:1026E0009E0660939D0680E20E94CB0330917C069B
:1026F0002DEF230F91E0223008F090E021E03130FF
:1027000009F020E0922BF9F08823E9F08091F301A1
:1027100081114BC280EF96E00E941A076CE271E0D3
:1027200080E090E00E949D050E94690680917C06F1
:102730008093F2018AE080937F0684E080937C0698
:1027400081E08093F30180E40E94CB03882331F081
:1027500080917C06813011F40E947F0A88E00E94FB
:10276000CB03882389F080917C06823069F48AEE5D
:1027700096E00E941A0780917F068E3129F48AE044
:1027800080937F0610927C0688E00E94CB0388230A
:1027900081F080917C06843061F48AEE96E00E949C
:1027A0001A0780917F068A3009F406C2843109F441
:1027B0000AC280E10E94CB03882379F080917C06D5
:1027C000823059F48EEF96E00E941A0780917F06BE
:1027D0008E3118F4865F80937F0680E80E94CB03D9
:1027E000882379F080917C06823059F48EEF96E050
:1027F0000E941A0780917F068B3018F08A508093D0
:102800007F0680E20E94CB038823F1F080917C0652
:102810008230D1F48EEF96E00E941A0780917F06F5
:10282000843109F4DAC18E3109F4E0C18A3061F4EF
:1028300080919F06833040F0815080939F06809165
:102840000C01815080930C0180E40E94CB0388230B
:10285000F1F080917C068230D1F48EEF96E00E94F8
:102860001A0780917F06843109F4C6C18E3109F4BC
:10287000CCC18A3061F480919F06853040F48F5F2F
:1028800080939F0680910C018F5F80930C010E94C2
:102890001D0982FF38C080917C068130A1F54091EE
:1028A000A9065091AA0680910C01BA01681B710912
:1028B0007093AA066093A9068091AD069091AE062A
:1028C000E091AF06F091B0063091B1062091B206CA
:1028D000843891057CF4830F911D1816190654F461
:1028E000E230F1053CF42E0F3F2F311D81E02B3FEC
:1028F0003F4F0CF480E077FD02C0882321F0509315
:10290000AA064093A9060E941D0983FF39C0809141
:102910007C068130A9F56091A9067091AA062091E4
:102920000C01260F372F311D3093AA062093A906DC
:102930008091AD069091AE06E091AF06F091B006A1
:102940005091B1064091B206843891057CF4850F10
:10295000911D1816190654F4E834F1053CF44E0F95
:102960005F2F511D81E0413451050CF480E0253387
:10297000310514F4882321F07093AA066093A90608
:102980000E941D0987FF34C04091B7065091B806D8
:1029900080910C01BA01681B71097093B8066093AD
:1029A000B7068091BB069091BC06E091BD06F09100
:1029B000BE063091BF062091C006843891057CF494
:1029C000830F911D1816190654F4E230F1053CF4FA
:1029D0002E0F3F2F311D81E02B3F3F4F0CF480E045
:1029E00077FD02C0882321F05093B8064093B706C4
:1029F0000E941D0984FF34C06091B7067091B8062B
:102A000080910C01860F972F911D9093B8068093AB
:102A1000B7064091BB065091BC06E091BD06F0910F
:102A2000BE063091BF062091C0064438510584F49B
:102A3000430F511D141615065CF4E834F10544F4F7
:102A40002E0F3F2F311D11E0213431050CF410E021
:102A5000C59714F4112321F07093B8066093B7065C
:102A60008091F3018111DFC30E94D60380917C061F
:102A7000833011F56091A60670E0809187069091F1
:102A800088060E94BC1C892BB9F48091A9069091FC
:102A9000AA0620910C0130E0220F331F4091A206BC
:102AA0005091A306481759070CF0B5C0821B930B31
:102AB0009093AA068093A9068091B5069091B606D8
:102AC0006091B7067091B8069C0133273093BC061D
:102AD0002093BB069B0133273093BE062093BD068F
:102AE0002091A9063091AA064091A7065091A80608
:102AF00055275093AE064093AD0633273093B0066A
:102B00002093AF060E943D096091A9067091AA0624
:102B10008091A7069091A8060E943D096091A006A9
:102B20007091A106072E000C880B990B0E94951B33
:102B30002B013C016091A2067091A306072E000CA8
:102B4000880B990B0E94951B4B015C0180917C06C0
:102B50008D7F813009F06CC0E0919D06F0919E065A
:102B6000E830F10508F064C0E354FA4E60919F0626
:102B700070E090E080E00C94D01C941699160E162C
:102B8000801689166B16B116A216943009F06FCD17
:102B9000865F80937F066BCD81E091CD8AE0809344
:102BA0007F0682E080937C069ECD8091F201809327
:102BB0007C061092F301C7CD8091F20180937C06D0
:102BC0001092F301F6CD1092F30110927C068AE088
:102BD00080937F060E947F0AECCD8091A606843008
:102BE00008F032CE8F5F8093A6062ECE8AE08093C7
:102BF0007F0610927C0628CE8091A606833008F4CA
:102C000046CE81508093A60642CE8AE080937F060E
:102C100010927C063CCE820F931F4ACF0E94951BD8
:102C20009B01AC01C301B2010E94791A2B013C0146
:102C3000C301B2010E945D1B6B8B7C8B8D8B9E8BC5
:102C40002B893C893093A1062093A00630939806E7
:102C500020939706C501B4010E945D1B7093A306E3
:102C60006093A20670939A0660939906E6E1F7E0F6
:102C70000491E7E1F7E0E49082E0C82E30E020E044
:102C800048E157E08B899C890E942D0742E0C301EF
:102C9000B2010E94320B6EE471E082E096E00E9485
:102CA000140C42E0C501B4010E94320B60E571E0F2
:102CB00082E096E00E94D70A80917C06813041F044
:102CC00008F45AC0823009F419C1833009F0A9C050
:102CD0000E94160CA6C00E94951B6B017C01AC01E2
:102CE0009B01C301B2010E94791A2B013C01A7018B
:102CF0009601C501B4010E94791A4B015C0198CF7D
:102D00000E94951B9B01AC01C301B2010E947A1A7B
:102D10008DCF0E94951B6B017C01AC019B01C3010F
:102D2000B2010E947A1AE1CF0E94951B9B01AC016F
:102D3000E0CF0E94951B9B01AC01C501B4010E942C
:102D40007A1ADBCF0E94951B6B017C01AC019B01C1
:102D5000C301B2010E94791A2B013C01A70196011F
:102D6000ECCF0E94951B6B017C01AC019B01C30160
:102D7000B2010E947A1AF0CF80917B0690E0029611
:102D800020917F06820F911D2EE130E03093720674
:102D900020937106909374068093730663E571E047
:102DA00082E696E00E94140C80917B0690E00C96DF
:102DB0003092720620927106909374068093730687
:102DC00066E571E082E696E00E94140C80917B0635
:102DD00090E04696309272062092710690937406A7
:102DE000809373066FE571E082E696E00E94140C12
:102DF00080917B0690E08096309272062092710658
:102E0000909374068093730668E671E082E696E01C
:102E10000E94140C80917B06823019F084508093BC
:102E20007B0686E0E7E9F6E0DE011D9601900D9253
:102E30008A95E1F786E0EBEBF6E0DE01179601906C
:102E40000D928A95E1F786E0EDEAF6E0DE01119653
:102E500001900D928A95E1F76D857E858F85988921
:102E60002A894989460F572F511D141615066CF4EF
:102E70006438710554F4FC01E20FF11DE134F105F1
:102E800024F0883491050CF4B0C0AF81B885A41744
:102E9000B5070CF4D3C0141615060CF4F8C0E9817C
:102EA000FA81E417F5070CF0ADC04D814E0F5F2F8E
:102EB000511D641775070CF0A5C04B815C81280F6C
:102EC000392F311D421753070CF09CC02E81240F5F
:102ED000352F311D821793070CF094C084EE96E0D5
:102EE0000E941A0780919D0690919E06843091055C
:102EF00009F4A1C0069709F4E7C084C080917B065D
:102F000090E0029620917F06820F911D2AE030E02A
:102F10003093720620937106909374068093730623
:102F200063E571E082E696E00E94140C80917B06D6
:102F300090E00C9609E110E0109372060093710680
:102F4000909374068093730660E771E082E696E0E2
:102F50000E94140CE0917906F0917A06408550E0C9
:102F600070E060E02AE082E696E00E94E60A809146
:102F70007B0690E04696109372060093710690933C
:102F80007406809373066FE771E082E696E00E9414
:102F9000140CE0917906F0917A0687858330D9F098
:102FA000843001F16AE871E08230B9F080917B06EB
:102FB00090E0809629E130E030937206209371060C
:102FC000909374068093730666E971E082E696E05A
:102FD0000E94140C26CF6FE871E082E696E00E9412
:102FE000140CE4CF63E971E0F8CF84EE96E00E9420
:102FF0001A0780919D0690919E0686309105A1F05A
:103000000797C9F0E2E8F5E091E8915009F05FC058
:10301000E2E0F2E091E8915009F45FC08191DF01B4
:10302000119781608C93F7CF84E090E090939E0697
:1030300080939D06E7CF85E090E0F8CFEB85EA0F1F
:10304000FB2FF11D6E177F070CF025CFE985FA8560
:10305000DC01A20FB11DEA17FB070CF01CCF3C8569
:10306000E30FF11D8E179F070CF015CF84EE96E04D
:103070000E941A0780919D0690919E0685309105C9
:1030800099F2079709F0BECF86E090E0CFCF643881
:1030900071050CF004CFFC01E20FF11DEB3FFF4F77
:1030A0000CF4FDCE823091050CF0F9CE84EE96E062
:1030B0000E941A0780919D0690919E06843091058A
:1030C00019F3059709F09ECF87E090E0AFCF81918B
:1030D000DF01119780688C9398CF8091A006909122
:1030E000A10680389105ECF080917D068F5F80937A
:1030F0007D068FE390E09093A1068093A0069093C5
:103100009806809397068FE190E09093A3068093B2
:10311000A20690939A06809399068EED96E00E94FF
:103120001A078091A0069091A10618161906ECF0D6
:1031300080917E068F5F80937E068FE390E0909370
:10314000A1068093A00690939806809397068FE13E
:1031500090E09093A3068093A20690939A068093A2
:1031600099068EED96E00E941A0790917E06809156
:103170007D06891708F4892F8A3009F050C084E051
:1031800097E00E941A070E94160C43E250E0509309
:1031900072064093710686E190E0909374068093E6
:1031A000730680917D066BE971E08A3011F063EA65
:1031B00071E082E696E00E94140CE7E3F0E0F09301
:1031C0007206E093710620E230E03093740620939B
:1031D00073066BEA71E082E696E00E94140C30926E
:1031E0007206209271064AE250E0509374064093B2
:1031F00073066EEA71E082E696E00E94140C80E0AD
:103200000E94BC0368E873E180E090E00E949D05A5
:103210000E947F0A10927C068AE080937F0680E0FD
:103220000E94BC0344C90E94D60380917F0690E0AF
:103230000C96EEE1F0E0F0939006E0938F06909309
:1032400092068093910663E571E080E896E00E9423
:10325000140C20E330E03093900620938F064CE06E
:1032600050E0509392064093910669EB71E080E83C
:1032700096E00E94140C3092900620928F0686E110
:1032800090E0909392068093910660EC71E080E864
:1032900096E00E94140C3092900620928F06E0E295
:1032A000F0E0F0939206E093910668EC71E080E81C
:1032B00096E00E94140CB3CF8F929F92AF92BF9270
:1032C000CF92DF92EF92FF92CF93DF93EC01688170
:1032D00079818A819B81611571058105910521F4B0
:1032E00064E279ED8BE597E02DE133EF41E050E0CA
:1032F0000E94161A49015A019B01AC01A7EAB1E4E8
:103300000E94351A6B017C01ACEEB4EFA50194016B
:103310000E94431AC60ED71EE81EF91EF7FE06C00D
:1033200081E0C81AD108E10880E8F80AC882D98289
:10333000EA82FB82C701B6019F77DF91CF91FF90B0
:10334000EF90DF90CF90BF90AF909F908F900895B7
:103350008F929F92AF92BF92CF92DF92EF92FF92A5
:1033600060910D0170910E0180910F0190911001FB
:10337000611571058105910521F464E279ED8BE514
:1033800097E02DE133EF41E050E00E94161A490129
:103390005A019B01AC01A7EAB1E40E94351A6B0106
:1033A0007C01ACEEB4EFA50194010E94431AC60E55
:1033B000D71EE81EF91EF7FE06C081E0C81AD10824
:1033C000E10880E8F80AC0920D01D0920E01E09267
:1033D0000F01F0921001C701B6019F77FF90EF90A7
:1033E000DF90CF90BF90AF909F908F9008956093A3
:1033F0000D0170930E0180930F01909310010895B9
:10340000F999FECF92BD81BDF89A992780B50895AC
:10341000262FF999FECF1FBA92BD81BD20BD0FB6F0
:10342000F894FA9AF99A0FBE01960895052E97FB23
:103430001EF400940E942D1A57FD07D00E94481ACE
:1034400007FC03D04EF40C942D1A509540953095FE
:1034500021953F4F4F4F5F4F089590958095709500
:1034600061957F4F8F4F9F4F08950E946A1AA59FC5
:10347000900DB49F900DA49F800D911D112408956F
:10348000B7FF0C94351A0E94351A821B930B0895CE
:10349000A1E21A2EAA1BBB1BFD010DC0AA1FBB1F58
:1034A000EE1FFF1FA217B307E407F50720F0A21BCA
:1034B000B30BE40BF50B661F771F881F991F1A9437
:1034C00069F760957095809590959B01AC01BD0161
:1034D000CF010895A29FB001B39FC001A39F700DBB
:1034E000811D1124911DB29F700D811D1124911D0C
:1034F00008955058BB27AA270E94911A0C940B1CC0
:103500000E94FD1B38F00E94041C20F039F49F3FFC
:1035100019F426F40C94FA1B0EF4E095E7FB0C94D6
:10352000F41BE92F0E941C1C58F3BA17620773079B
:103530008407950720F079F4A6F50C943E1C0EF450
:10354000E0950B2EBA2FA02D0B01B90190010C01B3
:10355000CA01A0011124FF27591B99F0593F50F4CB
:10356000503E68F11A16F040A22F232F342F442723
:10357000585FF3CF469537952795A795F04053951B
:10358000C9F77EF41F16BA0B620B730B840BBAF0EB
:103590009150A1F0FF0FBB1F661F771F881FC2F756
:1035A0000EC0BA0F621F731F841F48F4879577956A
:1035B0006795B795F7959E3F08F0B0CF9395880F24
:1035C00008F09927EE0F9795879508950E94D01BD4
:1035D00008F481E008950E94FF1A0C940B1C0E94CD
:1035E000041C58F00E94FD1B40F029F45F3F29F0B5
:1035F0000C94F41B51110C943F1C0C94FA1B0E9468
:103600001C1C68F39923B1F3552391F3951B550BBB
:10361000BB27AA2762177307840738F09F5F5F4FA5
:10362000220F331F441FAA1FA9F335D00E2E3AF0E4
:10363000E0E832D091505040E695001CCAF72BD0FC
:10364000FE2F29D0660F771F881FBB1F261737074D
:103650004807AB07B0E809F0BB0B802DBF01FF277F
:1036600093585F4F3AF09E3F510578F00C94F41B4D
:103670000C943F1C5F3FE4F3983ED4F38695779516
:103680006795B795F7959F5FC9F7880F911D969538
:10369000879597F90895E1E0660F771F881FBB1F94
:1036A000621773078407BA0720F0621B730B840B41
:1036B000BA0BEE1F88F7E09508950E94641B68948A
:1036C000B1110C943F1C08950E94241C88F09F5750
:1036D00098F0B92F9927B751B0F0E1F0660F771F36
:1036E000881F991F1AF0BA95C9F714C0B13091F02C
:1036F0000E943E1CB1E008950C943E1C672F782F69
:103700008827B85F39F0B93FCCF3869577956795F0
:10371000B395D9F73EF490958095709561957F4F5C
:103720008F4F9F4F0895E89409C097FB3EF4909502
:103730008095709561957F4F8F4F9F4F9923A9F08A
:10374000F92F96E9BB279395F69587957795679519
:10375000B795F111F8CFFAF4BB0F11F460FF1BC05D
:103760006F5F7F4F8F4F9F4F16C0882311F096E9F0
:1037700011C0772321F09EE8872F762F05C066239E
:1037800071F096E8862F70E060E02AF09A95660F57
:10379000771F881FDAF7880F9695879597F9089510
:1037A000990F0008550FAA0BE0E8FEEF1616170652
:1037B000E807F907C0F012161306E407F50798F0BA
:1037C000621B730B840B950B39F40A2661F0232BD3
:1037D000242B252B21F408950A2609F4A140A6954F
:1037E0008FEF811D811D089597F99F6780E870E034
:1037F00060E008959FEF80EC089500240A94161667
:10380000170618060906089500240A9412161306CE
:10381000140605060895092E0394000C11F488235C
:1038200052F0BB0F40F4BF2B11F460FF04C06F5F78
:103830007F4F8F4F9F4F089557FD9058440F551F4E
:1038400059F05F3F71F04795880F97FB991F61F022
:103850009F3F79F087950895121613061406551F99
:10386000F2CF4695F1DF08C0161617061806991F05
:10387000F1CF86957105610508940895E894BB27FA
:1038800066277727CB0197F908950E94D01B08F48B
:103890008FEF08950E945D1C0C940B1C0E94FD1B71
:1038A00038F00E94041C20F0952311F00C94F41BB6
:1038B0000C94FA1B11240C943F1C0E941C1C70F3E6
:1038C000959FC1F3950F50E0551F629FF001729FC5
:1038D000BB27F00DB11D639FAA27F00DB11DAA1FD4
:1038E000649F6627B00DA11D661F829F2227B00D21
:1038F000A11D621F739FB00DA11D621F839FA00DAC
:10390000611D221F749F3327A00D611D231F849FFB
:10391000600D211D822F762F6A2F11249F57504052
:103920009AF0F1F088234AF0EE0FFF1FBB1F661FCD
:10393000771F881F91505040A9F79E3F510580F096
:103940000C94F41B0C943F1C5F3FE4F3983ED4F3BB
:10395000869577956795B795F795E7959F5FC1F73A
:10396000FE2B880F911D9695879597F908950E94D3
:10397000D01B880B990B0895AA1BBB1B51E107C0F4
:10398000AA1FBB1FA617B70710F0A61BB70B881FEF
:10399000991F5A95A9F780959095BC01CD0108957E
:1039A000EE0FFF1F0590F491E02D099481E090E067
:0A39B000F8940C94DB1CF894FFCF90
:1039BA00FFFFFFFF00E1000000000000030100001C
:1039CA000000C1808100000000000000F704D0055B
:1039DA0018050D055E051C053A05000000007B0967
:1039EA00CA04930A920AB80FFCFF0000FA0F6E612C
:1039FA006E00696E66006F766600207C20002C00DF
:103A0A000D0A002D3E003120506C6179657200323A
:103A1A0020506C61796572004F7074696F6E730023
:103A2A0042616C6C2F50646C65205370643A004399
:103A3A005055204C6576656C3A0048617264004DB9
:103A4A00656400455A004261636B00506C61796598
:103A5A00723100506C6179657232004953005448E2
:103A6A00452057494E4E45520050617573656400B2
:103A7A00556E7061757365004D61696E204D656E96
:023A8A007500C5
:00000001FF
